:020000040800F2
:2000000098830020E9C00008BDD600083DCF0008C9210008DF0400086330000800000000CD
:2000200000000000000000000000000029C00008510500080000000085C000089D2400085B
:2000400003C1000803C1000803C1000803C1000803C1000803C1000803C1000803C1000840
:2000600003C1000803C1000803C1000803C10008F504000803C10008F904000803C10008B2
:2000800019050008E9C2000803C1000803C10008E104000803C1000803C1000803C100089E
:2000A00003C1000803C1000803C1000803C1000803C100083DDA000803C1000803C100088D
:2000C00003C1000803C1000803C1000803C1000803C1000891250008C9DC00080926000882
:2000E00003C1000803C1000803C1000803C1000803C1000803C1000803C1000803C10008A0
:2001000003C1000803C1000803C1000803C1000803C1000803C1000803C1000803C100087F
:2001200003C1000803C1000809C3000803C1000803C10008000000000000000003C10008EF
:2001400003C1000803C1000803C10008CD21000803C1000803C100081D05000803C10008B7
:2001600003C1000803C1000803C1000803C1000803C1000803C100080000000000000000B7
:2001800003C1000803C1000800F002F80BF03CFF0AA090E8000C82448344AAF10107DA452A
:2001A00001D10BF031FFAFF2090EBAE80F0013F0010F18BFFB1A43F001031847543B0000B5
:2001C000743B00000A444FF0000C10F8013B13F0070408BF10F8014B1D1108BF10F8015B11
:2001E000641E05D010F8016B641E01F8016BF9D113F0080F1EBF10F8014BAD1C0C1B09D16E
:200200006D1E58BF01F801CBFAD505E014F8016B01F8016B6D1EF9D59142D6D3704700005A
:200220000023002400250026103A28BF78C1FBD8520728BF30C148BF0B60704710B510BD03
:2002400053EA020C00F069802DE9F04B4FF00006002B1FBFB3FA83F503FA05F424FA05F6A7
:200260005E4012BF1643B2FA82F502FA05F4C5F120051EBF22FA05FC44EA0C04203556EAF6
:20028000044C4FEA144418BF641C4FF000084FF00009904271EB030C39D3002919BFB1FAA2
:2002A00081F701FA07F6B0FA80F700FA07F6C7F120071EBF20FA07FC46EA0C062037B6FB93
:2002C000F4FCA7EB0507103F07F01F0BCBF120060CFA0BFB2CFA06F644BFB3460026202F9F
:2002E000A4BF5E464FF0000B5BEA060C08BF4FF0010B19EB0B09ABFB027C48EB0608C01BEC
:2003000006FB02CC0BFB03CC71EB0C01C1E70B46024641464846BDE8F08B13B54FF0000053
:200320004FF00001AFF30080BDE81C407047032A40F2308010F0030C00F0158011F8013BBB
:20034000BCF1020F624498BF11F801CB00F8013B38BF11F8013BA2F1040298BF00F801CBE9
:2003600038BF00F8013B11F0030300F02580083AC0F0088051F8043B083A51F804CBA0E8D2
:200380000810F5E7121D5CBF51F8043B40F8043BAFF30080D20724BF11F8013B11F801CB28
:2003A00048BF11F8012B24BF00F8013B00F801CB48BF00F8012B704710B5203AC0F00B80EA
:2003C000B1E81850203AA0E81850B1E81850A0E81850BFF4F5AF5FEA027C24BFB1E81850DF
:2003E000A0E8185044BF18C918C0BDE810405FEA827C24BF51F8043B40F8043B08BF7047B5
:20040000D20728BF31F8023B48BF11F8012B28BF20F8023B48BF00F8012B704702F0FF0368
:2004200043EA032242EA02420BF080BE4FF0000200B5134694469646203922BFA0E80C509E
:20044000A0E80C50B1F12001BFF4F7AF090728BFA0E80C5048BF0CC05DF804EB890028BF3A
:2004600040F8042B08BF704748BF20F8022B11F0804F18BF00F8012B7047704770477047A4
:2004800001491820ABBEFEE72600020000487047347700207546FFF7F9FFAE460500694649
:2004A000534620F00700854618B020B50BF02AFEBDE820404FF000064FF000074FF000082A
:2004C0004FF0000B21F00701AC46ACE8C009ACE8C009ACE8C009ACE8C0098D467047FEE7E4
:2004E000014800F09BB900001002002000207047002070477047000006480168C1F3C0614C
:2005000021B90168C1F34061002902D003210CF0B9BD704700600240704700000A484168A7
:20052000C1F3C06119B14FF00061C16008E04168C1F34061002906D0044A4FF00071D16047
:2005400007210CF09FBD70470064024000600240704772B6FEE70000002229B101291AD048
:2005600002291BD04FF440720E490B6823F440730B600B6813430B600A6822F0F8020A6055
:200580000A68022303EBC00002430A60086840F48030086070474FF48072E5E74FF400723E
:2005A000E2E70000103C02401348016889050FD5016821F400710160016841F400610160FE
:2005C000016821F400610160016841F400710160016849050FD5016821F4806101600168A7
:2005E00041F480510160016821F480510160016841F4806101607047003C024008490A680C
:2006000022F440720A600A6842F004020A600A684FF4803343EA002002430A607047000079
:20062000103C0240064A136823F44073136013681360136843F001031360017070470000E9
:20064000103C0240074A136823F440731360136843F400731360136843F0010313600160E5
:2006600070470000103C024017490868C206174805D5C26942F01002C26110220A600A68C4
:20068000920605D5C26942F00802C26120220A600A68520605D5C26942F00402C261402226
:2006A0000A600A68120605D5C26942F00202C26180220A600A68920705D5C26942F0200278
:2006C000C2610220086070470C3C0240402E002078B50024009490F83C20012A19D001229E
:2006E00080F83C200A6807250368092A13D9DE680A3A02EB42029540AE43DE600A788B68CA
:200700000A3A02EB420293400268D5682B43D36010E0022078BD1E6902EB42029540AE4384
:200720001E610A788B6802EB42029340026815692B4313614A681F25072A13D203685E6BB7
:20074000521E02EB82029540AE435E630A8893B20A79521E02EB820293400268556B2B438B
:20076000536327E003680D2A12D21E6BD21F02EB82029540AE431E630A8893B20A79D21FB9
:2007800002EB820293400268156B2B43136311E0DE6A0D3A02EB82029540AE43DE620A88BE
:2007A00093B20A790D3A02EB820293400268D56A2B43D362164B0568144A9D4206D10D6843
:2007C000122D03D1556845F48005556005689D4218D10B68102B01D0112B13D1536843F410
:2007E00000035360096810290CD10A490A4A0968B1FBF2F101EB8101490000E0491E009186
:200800000029FBD180F83C40002078BD0023014000200140B400002040420F002DE9F05F0B
:200820000546006800244669D0F804908768D0F80CB0D0F810A0D0F81880F10748D0F9077B
:2008400014D001218160B80703D5284600F0B3F90CE0780702D54FF4006407E0380702D52A
:200860004FF4805402E028460BF01FFEF80516D529684FF480708860B80503D5284600F072
:200880009BF90CE0780502D544F4005407E0380502D544F4804402E028460BF007FEF803B6
:2008A00016D529684FF480308860B80303D5284600F083F90CE0780302D544F4004407E0D3
:2008C000380302D544F4803402E028460BF0EFFD300707D55FEACB6004D52968102044F48A
:2008E0000074C86070074FF0080707D55FEA0B7004D52868C760284600F05AF9B00706D524
:200900002868C068800702D028460BF0CCFD700607D55FEACA6004D52968102044F4806419
:200920000861B00607D55FEA0A7004D528680761284600F03EF9F00606D528680069800742
:2009400002D028460BF0B0FDB00308D55FEAC96005D5296810204860284600F02BF9F003F5
:2009600007D55FEA097004D52868476028460BF09FFD300446D55FEA497040D5F00504D590
:200980005FEAC87001D044F00104B00504D55FEA887001D544F00204700504D55FEA48709E
:2009A00001D544F00404300529D518F0700F26D008F07000402815D006DC102809D0202885
:2009C0000AD0302816D10AE050280ED0602811D10EE044F008040DE044F010040AE044F0D3
:2009E000200407E044F0400404E044F0800401E044F480742868816921F07001816129685C
:200A000004204860002C05D0686A2043686228460BF048FDBDE8F09F70B5040003D094F8A0
:200A2000200010B104E0012070BD204600F082F82068016841F00101016000F063FA0546B6
:200A4000052604E000F05EFA401B0A2811D820684068C007F6D02068016821F002010160A6
:200A600000F050FA05460BE000F04CFA401B0A2806D9606A40F40030606284F82060D2E7BF
:200A8000206840688007EFD4207E0128206801683DD021F080010160607E0128206801682C
:200AA00038D021F040010160A07E01282068016833D021F020010160E07E01282068016835
:200AC0002ED041F010010160207F01282068016829D021F008010160607F0128206801684F
:200AE00024D021F004010160D4E902010843D4E90412114308436168491E08432168C861E1
:200B000000206062012084F82000002070BD41F08001C0E741F04001C5E741F02001CAE76F
:200B200021F01001CFE741F00801D4E741F00401D9E7000010B586B0044614216846FFF7D4
:200B400075FC18492068884229D117480021026842F000720260006800F0007005901248D0
:200B60001038026842F002020260006800F0020005904FF4407000900220CDE901010320BC
:200B80000390092004906946084800F0D3F80022052114200BF0B0FC142000F021FA06B033
:200BA00010BD000000640040403802400004024070477047704770477047704770B504460B
:200BC00000F0A0F90546601C02D004480078044400F098F9401BA042FAD370BDA800002067
:200BE0002DE9F047044622480E46017E01290AD00121804601764CF2503948460BF0AEFBC5
:200C0000020003D02FE00220BDE8F0874FF0FF3030602068174F012801D0A5681CE0207C27
:200C20006168FFF7EBFC48460BF098FB0246386820F00400386014E0217C2846FFF78CFCE1
:200C400048460BF08BFB0200386820F0FA00386001D0356005E06D1CD4E902100844A84268
:200C6000EAD8FFF7A1FC002188F818101046CBE7402E0020103C02400348016841F000410C
:200C80000160002070470000103C02402DE9F0471B4E05461446307E1F468946012808D050
:200CA000012030764CF2503840460BF057FB18B114E00220BDE8F0879DB1012D16D0022D48
:200CC00019D022463B4648460BF020FB40460BF045FB0C490A6822F001020A6000213176CF
:200CE000E8E7E1B24846FFF79DFCEFE7A1B248460BF022FBEAE721464846FFF7A3FCE5E77F
:200D0000402E0020103C0240074900200A68002A09DA054A054B0C3A1360054B136009683C
:200D2000002900DA01207047103C024023016745AB89EFCD2DE9F84FDFF89C910022A9F16D
:200D4000040B03274FF00F0C09F1040AABF1040E01250B6895402B40AB426ED10C7904F0CC
:200D60000304012C01D0022C15D18668540007FA04F826EA0806D1F80C8008FA04F848EA78
:200D80000608C0F808804468AC430D79C5F300159540254345600C79E443A40708D0C568D9
:200DA000540007FA04F6B5438E68A6402E43C6600C7904F00304022C11D1D40800EB840698
:200DC000356A5407E40E0CFA04F825EA0805D1F8108008FA04F848EA0508C6F820800568A8
:200DE000540007FA04F6B5430E7906F00306A6402E4306604C6814F4403F66D0374C2568E8
:200E000045F480452560246822F0030504F480440094334C05EB0408D8F808589407260FDE
:200E20000CFA06F4A5432F4CA04201D1002424E02D4CA04202D101241FE046E02B4CA042A2
:200E400001D1022419E02A4CA04201D1032414E0284CA04201D104240FE0274CA04201D1F6
:200E600005240AE0254CA04201D1062405E0244CA04201D1072400E00824B4402C43C8F8AD
:200E80000848D9F800404D464E689C43F60200D51C432C60DAF8004055464E689C43B60217
:200EA00000D51C432C60DBF800405D464E689C43B60300D51C432C60DEF8004075464E6827
:200EC0009C43F60300D51C432C60521C102AFFF43FAFBDE8F88F0000083C01404438024082
:200EE00000300140000002400004024000080240000C02400010024000140240001802405F
:200F0000001C02400148806870470000A800002030B505461F4887B00024016841F0020134
:200F20000160006806A900F002000590684600F0E5F90398A8B10BF081FF40001649174AC7
:200F4000B0FBF1F11648491E026040F2E732C0E90324C0E9011484610BF081FF040003D0CD
:200F600015E00BF06BFFE9E70D480BF0A5FF04000DD11D2000F034F8102D07D20022294671
:200F80001D200BF0B9FA0748056000E0012407B0204630BD4038024040420F000004004014
:200FA000E8060020AC0000200C4882B0016841F480410160006800F4804000900748001FF7
:200FC000016841F0805101600068002200F0805000900F21901E02B00BF08EBA44380240DA
:200FE000002809DB00F01F02012191404009800000F1E020C0F8001170477047D0F808051B
:2010000001F0ACBC70B504460B0601F00F0000EBC00104EB81014FF001024FF0000503D57C
:2010200081F83D203C3103E081F87D5201F51F71087094F8BC04012808D084F8BC24206813
:2010400001F03AFE84F8BC54002070BD022070BD70B5044601F00F006268904201D9012039
:2010600070BD0B0601F00F0101EBC10104EB81014FF001024FF0000503D581F83D203C3171
:2010800003E081F87D5201F51F718D70087094F8BC04012808D084F8BC24206801F03CFFCD
:2010A00084F8BC54002070BD022070BD2DE9F04104460F0601F00F0000EBC00104EB810145
:2010C0004FF001064FF0000503D581F83D603C3103E081F87D5201F51F710870CA600B715C
:2010E0004A7802B10881022B00D14D7194F8BC04012809D084F8BC6420680DF043FB28461B
:2011000084F8BC54BDE8F0810220FBE770B50D4601F00F0404EBC40100EB8101C1F894320D
:20112000C1F88C220023C1F89C3281F87D3281F87C42036901F51F71012B00D14A612A0774
:20114000027C006803D00DF091FC002070BD01F029FEFAE770B504460D4601F00F0061687B
:20116000884201D9012070BD29064FF000064FF0010207D500EBC00104EB810181F83D20F8
:201180003C3107E005EBC50104EB810181F87D6201F51F718A70087094F8BC04012807D038
:2011A00084F8BC2420680DF035FC280702D007E0022070BD217C04F2C442206801F080FE56
:2011C00084F8BC64002070BDD0F8080501F0E5BB10B586B0044614216846FFF727F92068FA
:2011E000B0F1A04F2FD119480021026842F001020260006800F0010005904FF4C05000900B
:201200000220CDE90101032003900A20049069460F48FFF78FFD0D48001D016841F080016B
:2012200001600A481430016841F4804101600068002200F480400590052143200BF05CF94B
:201240004320FFF7CDFE06B010BD0000303802400000024070B50446C068012570B10228F3
:2012600001D0FFF776F92946D4F808050DF012F9D4F80805BDE8704001F0ACBB0025F2E764
:20128000D0F8080501F0D4BB10B50446006894F8BC14012906D0012184F8BC14A16A012983
:2012A00002D008E0022010BDA169012903D0816B41F480318163206801F05AFE20680DF072
:2012C000DBFA002084F8BC0410BD000010B50446D0F8080501F0F2FB2068D0F8001E41F0AF
:2012E0000101C0F8001E206A002804D00248016841F00601016010BD10ED00E00F22026007
:201300000C4A136803F003034360136803F0F0038360136803F4E053C36012684FF4E05364
:2013200003EAD20202610448006800F0070008607047000008380240003C0240154810B59D
:20134000006810F00C01144813D0144B04290FD008290ED10F4C241F216801F03F0221687C
:20136000490207D52068C0F38810A0FB030106E0184610BD2168C1F38811A1FB000100232D
:20138000FEF75EFF2168C1F30141491C4900B0FBF1F010BD083802400024F400001BB70009
:2013A0002DE9F84F040075D02078DFF838A3C007AAF1040548D00AF104000168C1F381011C
:2013C000012908D00068C0F3810002280AD1DAF80000400206D52868800335D5606800286E
:2013E000E1D031E06068B0F5803F10D0B0F5A02F286810D020F480302860286820F48020AB
:2014000028606068A0B1FFF77DFD06460CE0286840F48030F4E740F480202860F7E7FFF704
:2014200071FD801B642871D828688003F7D50BE0FFF768FD064604E0FFF764FD801B6428FB
:20144000F1D828688003F7D42078DFF89C9280074FF0000B3DD5A348001D016811F00C0FD8
:2014600008D00068C0F3810002280AD1DAF80000400206D42868800715D5E068012809D1B9
:2014800011E0E068B8B10120C9F80000FFF73AFD064605E022E1FFF735FD801B0228C2D8E0
:2014A00028688007F7D52868216920F0F80040EAC10028600DE0C9F800B0FFF723FD0646F4
:2014C00004E0FFF71FFD801B02281FD828688007F7D42078000722D5824F844861697037D4
:2014E00071B101210160FFF70DFD064604E0FFF709FD801B022809D838688007F7D50EE094
:20150000C0F800B0FFF7FEFC064605E082E0FFF7F9FC801B02287DD838688007F7D4207851
:20152000400765D56F484FF000083C300068C0000BD46C483C30016841F080510160006865
:201540004FF0010800F080500090694F3868C0050FD4386840F480703860FFF7D3FC064686
:2015600004E0FFF7CFFC801B022853D83868C005F7D55C4FA0686C3701280FD0052838687A
:2015800010D020F001003860386820F004003860A068B0B1FFF7B6FC06460EE0386840F05B
:2015A0000100F4E740F004003860F7E7FFF7AAFC811B41F28830814263D838688007F5D593
:2015C0000DE0FFF79FFC064606E0FFF79BFC811B41F28830814254D838688007F5D4B8F1BF
:2015E000000F05D03F483C30016821F080510160A069B8B33B49091D0968C1F38101022978
:2016000046D00228584606D0C9F86000FFF77AFC044639E035E04F46C9F86000FFF772FCF7
:20162000064604E0FFF76EFC801B022829D828688001F7D4D4E907010843A16A2D4A490895
:2016400002EB0141626A41EA8211084394F82C1040EA0161CAF8001001203866FFF752FC5D
:20166000044605E03CE0FFF74DFC001B022808D828688001F7D533E0FFF744FC001B022850
:2016800002D90320BDE8F88F28688001F4D427E00128F7D0DAF80000E26900F480019142EB
:2016A0001CD1226A00F03F01914217D147F6C071626A0140B1EB821F10D1A26A4FF0FF33B0
:2016C00000F4403103EB5202B1EB024F06D194F82C1000F07060B0EB016F01D00120D1E762
:2016E0000020CFE70438024000004742800E4742007000400000FFFF7047704770B504466B
:20170000006801694FF00005C943890715D4C168C943890711D4E91E0161012020772068DB
:2017200080698007204602D00BF006FC04E000F098F820460BF001FC257720680169C943A8
:20174000490717D4C168C943490713D46FF004010161022020772068806910F4407F2046C9
:2017600002D00BF0E9FB04E000F07BF820460BF0E4FB257720680169C943090716D4C16874
:20178000C943090712D46FF008010161042020772068C0698007204602D00BF0CDFB04E0AB
:2017A00000F05FF820460BF0C8FB257720680169C943C90617D4C168C943C90613D46FF020
:2017C00010010161082020772068C06910F4407F204602D00BF0B0FB04E000F042F8204611
:2017E0000BF0ABFB257720680169C943C90708D1C168C943C90704D1891E0161204600F0CC
:2018000031F820680169C943090609D4C168C943090605D46FF08001016120460BF01EFBDC
:2018200020680169C943490609D4C168C943490605D46FF040010161204600F01DF820682C
:201840000169C94389060BD4C168C943890607D46FF0200101612046BDE87040FFF74CBF67
:2018600070BD704700680349884201D10AF022BE70470000000400407047002070470000D1
:201880000A4808B5016841F080510160006800F0805000900BF014FA054900200870C1F80D
:2018A000020088720881C88008BD000040380240300F00202DE9F04FA3B0884822908021B2
:2018C0006846FEF7B3FDDFF818A26021DFF81492CAF80410554699F80A2029699AF802C014
:2018E0006E7899F80070B9F8080011442191A968209129780024B9F80630ED6800F1010E7E
:20190000A9F5006BBCF1050F0DD2DFE80CF0031F49BFDF00BEB18F4203D110B90BB1802A0F
:2019200004D08AF8014023B0BDE8F08F0020FF214FF400635A461154401C9842FBDB012001
:201940008AF80200EFE768480470ECE75546FEB14E468F4203D110B90BB1802A03D002208F
:2019600001F096FB80E000205B463718FF7A1F54401C8242F9DCC5F80CE0219A2A61022281
:20198000AA701FFA8EF220980BF0DAFA6C70CAE7022001F07DFBA889297882B2A86872E08D
:2019A000D0469EB34E468F425AD1A84258D173B398420DD200205F4605F00F0106E0351841
:2019C00000EBC11CED7A07F80C50401C8242F6DCC8F80CE02198C8F8100071465FEA0E70D8
:2019E00016D18B4214D3C8012299A0F5006042184FF4006529463D480DF05BFD0020FF2148
:201A00005A461154401CA842FBDB1BE031E027E035468B4216D800205E4601F00F0306E0AF
:201A20002F1800EBC31CFF7A06F80C70401C8242F6DC2298C91A00EBC1124FF400612B483E
:201A40000DF037FDB9F80600D8F80C10884201D3022000E0032088F8020088F8014062E763
:201A6000022001F015FB4546A889297882B2A8688AE7022001F00CFBB8F80C10D8F8080073
:201A80008AB298F800100BF05BFA4CE75646AAB220980BF055FA642001F0FAFAB0893178A2
:201AA00082B2B0680BF04CFA642001F0F1FAB089317882B2B0680BF043FA642001F0E8FA7C
:201AC0000948B470F4600470002003E00648047045F65A2000F012F825E70000000006083B
:201AE00018000020300F002034000020300700200148006880B270475428004005490A688E
:201B000042F480720A60044A1060086820F48070086070470070004054280040044908B56C
:201B20000A6802430A6009680140009108BD000030380240F0B5084E00F10C04059F755C61
:201B40000830402F03D02A50705C0351F0BD2A51715C0B50F0BD0000D43C0008034A515C62
:201B6000425822F00802425070470000D43C0008034A515C425822F0040242507047000059
:201B8000D43C0008034A515C425842F00402425070470000D43C0008034A515C425842F03A
:201BA00001024250704700004AFC0008024A515C405800F0C0007047D43C0008044B001D0F
:201BC000595C0B586FF30F0313430B5070470000D43C0008044B001D595C0B586FF30F0301
:201BE00013430B5070470000DC3C0008034B595C435823F0C003134343507047D43C000831
:201C0000034B595C435823F4C043134343507047D43C0008034B595C435823F400731343D6
:201C200043507047D43C0008034B595C435823F44033134343507047D43C00082DE9F04319
:201C40000A684FF00F0992FAA2F2B2FA82F34FF0030C74E001249C4022406FD04C68012C55
:201C600001D0022C17D18C68856892FAA2F6B6FA86F676000CFA06F6B54392FAA2F6B6FA08
:201C800086F67600B44025438560CC68456854439543254345600C69C56892FAA2F6B6FA3E
:201CA00086F676000CFA06F6B54392FAA2F6B6FA86F67600B4402543C5604C68022C2BD113
:201CC00092FAA2F4B4FA84F4082C4C6911D2056A92FAA2F6B6FA86F6B70009FA07F6B54382
:201CE00092FAA2F6B6FA86F6B600B4402543056212E0466A150A95FAA5F7B7FA87F74FEAC7
:201D0000870809FA08F795FAA5F5B5FA85F5AD00BE43AC40264346624C68056892FAA2F6F0
:201D2000B6FA86F677000CFA07F692FAA2F2B2FA82F25200B5439440254305605B1C0A68E9
:201D400032FA03F486D10020BDE8F08310B504460BF050FD20600BF031FD606000F0A2FA85
:201D6000A06060680BF038FDE06010BD143050E8001F41F0800140E80012002AF7D170472E
:201D80000C3050E8001F41F0100140E80012002AF7D170477FB50446C0680D460126C0F3B8
:201DA0004030C0BBE9686868AA690843296911430843E16849F20C6291430843E060A86827
:201DC000216921F44051014321616869616921F44071014361616846FFF7B8FF0F4884422E
:201DE00008D00F4884420DD00E4884420AD00E48844201D1039906E00C48844202D00C486B
:201E0000844208D1029931B12B6823B100262046AA6900F00FF804B0304670BD0010014001
:201E2000004400400048004000140140004C0040005000402DE9F04104461920A1FB0001BE
:201E4000002764253226B2F5004F28D09F0F9A003B46FEF7F5F90146B0FBF5F06FF0180290
:201E6000504301EB800006EB0010B0FBF5F000F0F002B1FBF5F002EB0012B1FBF5F06FF070
:201E80001803584301EB800006EB0010B0FBF5F000F00F00104480B2A060BDE8F081DA1802
:201EA00047EB0703FEF7CCF90146B0FBF5F00201B1FBF5F06FF01803584301EB800006EB4F
:201EC000C000B0FBF5F000F0F80002EB4002B1FBF5F0584301EB800006EBC000B0FBF5F0C2
:201EE00000F00700D6E700000D4810B50B4901601021416000218160C160016141610176EF
:201F000041768176C17601774177FEF785FD002803D0BDE81040FEF71CBB10BD0064004008
:201F20001002002010B54FF400100BF07FF84FF480000BF07BF801F0A3F8062211460BF0AE
:201F4000BEFB01460C200CF0CBFF0C200CF0BBFF01F096F8062211460BF0B1FB01460E2093
:201F60000CF0BEFF0E200CF0AEFF01F089F8062211460BF0A4FB014610200CF0B1FF1020F3
:201F80000CF0A1FF01F07CF8062211460BF097FB014611200CF0A4FF11200CF094FF01F06C
:201FA0006FF8062211460BF08AFB01463A200CF097FF3A200CF087FF01F062F806221146E2
:201FC0000BF07DFB014646200CF08AFFBDE8104046200CF078BF0000F0B58FB01C2101A804
:201FE000FEF724FA182108A8FEF720FA4FF480200BF028F80220FFF791FD4FF440600890B7
:020000040800F2
:202000000220099003200024CDE90A040720CDE90C4008A96648FFF711FE664D4FF0006615
:202020003246012128460BF053F8002201212846FFF7DCFD002201212846FFF7F5FDAA1578
:20204000012128460BF064F8002201212846FFF7E1FD2F153A46012128460BF04FF800225B
:20206000012128460BF05EF8002201212846FFF7C7FD012128460AF0F1FF3246032128468F
:202080000BF026F8402203212846FFF7AFFD002203212846FFF7C8FD0022032128460BF073
:2020A00037F8002203212846FFF7B4FD3A46032128460BF023F80022032128460BF032F895
:2020C000002203212846FFF79BFD032128460AF0C5FF394800680622C0F3022011460BF036
:2020E00007FB014627200CF00BFF272000F0BAFF4FF46120CDE901040C20CDE9044003941E
:20210000069407942D4C01A92046FFF743FE206920F490402061606920F02A006061E068D0
:2021200040F40050E06001212846FFF73FFD261D0090234B324601212846FFF7FBFC21487A
:20214000012182782846FFF739FD03212846FFF72DFD1B4A00903346C83203212846FFF727
:20216000E9FCC82203212846FFF728FD012128460AF092FF01212846FFF704FD03212846AF
:202180000AF076FF03212846FFF7F2FC03212846FFF7E4FCC82201212846FFF70FFD204610
:2021A000FFF7EEFD20460AF0C7FF0FB0F0BD000000040240006002400CED00E00048004063
:2021C0005805002014000020FEE7000001480AF03BBA0000342900202DE9F04106680546B4
:2021E0000C46306C06EB4411D1F8083BD5F810C04FF400474FF0200E05F2C442BCF1010F51
:2022000008D0DFF898C0604538D1180431D5C1F8087B3FE0224E5FEA037C04D5B04239D977
:202220001804F4D436E05FEA836C02D5C1F808EB30E013F0280F2DD1B04201D91804E6D4FF
:2022400004EBC40005EB8000D1F8101BD0F89832C1F31201591AC0F89C1200F51F70ACB94C
:2022600083691BB10269114401610FE0012128680AE098060AD5C1F808EB07E034B9D5F82F
:20228000940218B90021304600F01AFEE1B228460AF097F90020BDE8F08100000A31544F99
:2022A0000A30544F04490968044A01F4E05102EB91210978C840704708380240E43C000886
:2022C000F0B5184F0A24164EFB89142539B1B3FBF5F105FB1131A14201D2402101E04FF4A8
:2022E0008001B1613AB1B3FBF5F105FB1131A14201D2802101E04FF40001B1614FF48071C8
:2023000038B1B3FBF5F005FB1030A04201D2B16102E04FF08070B0615B1CFB81F0BD000078
:202320000008024034000020F0B42C4C2C4A0025E17AA9B101291AD002291ED0032920D04A
:20234000042922D00727052923D023469E7A13463344761CF6B206292AD0072932D03BE00E
:20236000EC2839D10121E1721070F0BC7047962832D10221E1725070F7E70321E17290709B
:20238000F3E70421E172D070EFE710710520E072EBE7962820D206281ED90621E1725071FB
:2023A000C01F10F0FF00607200D1E772A572DCE7617A491E11F0FF0161729871A672D4D18D
:2023C000E772D2E7E5729871A6725079F0BC401EC1B203480BF09CBBE572C6E73400002038
:2023E000521000202DE9F04F87B04FF0000817460E460446CDF81480B0F1006F38D3A00772
:2024000036D1FEF781FC1C48254604EB87074CF2503B844215D24FF001094FF0020ABD42EE
:202420000FD22868401C11D02846CDF800800BF01FFA02AA05A982E801066846FEF7D0FBEE
:2024400028B1584609F08AFF70B10FE02D1D584609F084FFE3E70023214602203268FEF70A
:2024600015FC18B9241D361DBC42F4D3FEF704FC07B0BDE8F08F000000100C0801200CF010
:202480005FFDFBE70BF0F0F8034C4AF6AA2525600A200CF055FDFAE70030004010B54FF06B
:2024A000E020006901F0ECFA012803D0BDE810400DF0A0B910BD00000248016841F470016F
:2024C0000160704788ED00E0F0B47B27DDE90553C3F30D062C4B049CDFF8B0C01F708C27C2
:2024E0005F7015279F709CF80570DF707F1C8CF80570A1271F711C275F7111270CB1CC2783
:2025000002E0062D00DC00279F71370ADF711E72060A5E729872BDEEC00AC808D87210EEFB
:20252000100ABDEEE10A010A1973587310EE100ABDEEE00A010A9973D87310EE100A010A57
:2025400019745874100A9874DA74200A0E4918755C7543319D75088E020ADA751876888EB4
:20256000010A59761B219876002210461C5C401C2244C0B2D2B28842F8D35A54F0BC024856
:20258000491C00F0E5BF0000A511002034000020F8B51A4C2068C0F3001000282DD0184E2F
:2025A000022130460AF06EFD20680090606800904FF40010B0604010B06060682068022177
:2025C00030460AF07DFDC0F1C800C5B2681EC72808D200240B4F03E0385DFFF7A5FE641CC3
:2025E000AC42F9DBC822022130460AF07BFD3046BDE8F8400221FFF7CFBAF8BD0010014029
:202600000064024038020020F8B51A4C2068C0F3001000282DD0184E012130460AF032FD10
:202620002068009060680090E014B0604010B060201D00682068012130460AF041FDC0F118
:20264000C800C5B2681EC72808D200240B4F03E0385DFFF769FE641CAC42F9DBC82201214B
:2026600030460AF03FFD3046BDE8F8400121FFF793BAF8BD0048004000600240580500209A
:2026800070B50546D0F8D40205EB8000D0F8C04294B128460BF0A0FEC4F80C02D5F8D41229
:2026A000D4F8040205EB8101D1F8C412CA6804F503719047002070BD032070BD70B50646B3
:2026C00082210C480BF07EFD0546012109480BF079FD0446812107480BF074FD0DB11021C8
:2026E000A971402104B1A18000B1818043203080004870BD4C01002010B5D0F8D41200EB84
:202700008101D1F8C01259B1027C084C002AD1F8042207D04023617800F053F9002010BD6B
:20272000032010BD4FF40073F5E700003C010020D0F8D42200EB8200D0F8C00218B1C0F884
:2027400004120020704703207047D0F8D43200EB8300D0F8C00228B1C0F81022C0F8081257
:20276000002070470320704710B5D0F8B82200245268904700B10324204610BD00207047AA
:20278000134610B50A46002100F01BF9002010BD10B50446802100F088F92046BDE810403D
:2027A000002100F082B910B50421C0F8941200231A46194600F08BF9002010BD10B50A462D
:2027C000024903A00BF022FD004810BD1415002043444320496E7465726661636500000018
:2027E00004200880004870476000002010B50A46024903A00BF00AFD004810BD141500204B
:2028000053544D6963726F656C656374726F6E696373000010B51A2008800A480168001D1D
:202820000468001D0068081809D0082206490AF0D5FB05490422103120460AF0CFFB024842
:20284000801E10BD107AFF1F7A000020F8B504460020ADF8000048880D46010A08295FD27F
:20286000DFE801F05E0409175E5E3D45D4F8B412207C0A6819E0207C02260028D4F8B802D5
:2028800005D0C16A684688470146467039E0816AF8E7C0B2062843D2DFE800F0030B11153B
:2028A000191DD4F8B402426806E069469047014627E0D4F8B40282688AB3207CF5E7D4F80F
:2028C000B402C268F8E7D4F8B4020269F4E7D4F8B4024269F0E7D4F8B4028269ECE7207C91
:2028E000E8B9D4F8B802416B68468847DFE7207CA8B9D4F8B802016B6846884701460720E8
:202900004870EA888AB1BDF8000040B1824200D90246ADF8002020460BF01BFCF8BDFFE7EF
:2029200029462046FFF734FFF8E72046FFF73BFFF4E701004FF0000004D0012901D002290F
:2029400001D0032070470120704710B5D0F8C802FEF77EFBBDE81040FFF7EBBF10B50024B1
:20296000012180F89C12D0F8B82222B152680179904700B10324204610BD0A0601F07F0103
:20298000D0F8C80201EBC10100EB810002D590F83E00704790F87E02704710B5D0F8D422F5
:2029A00000EB8202D2F8B82222B190F89C32032B02D004E0032010BD526A02B190470020A1
:2029C00010BD10B5D0F8C802FEF7A0FBBDE81040FFF7AFBF2DE9F04100250126044680F895
:2029E0009C62C4F894526560C4F8A45280F8A052D0F8B80230B1426822B100212046904718
:202A000000B1032500224023114620460BF02CFD4027A4F864613B46002280212046C4F849
:202A200060710BF021FDA68428462762BDE8F08110B590F89C12032905D1D0F8B81211B124
:202A4000C96901B18847002010BD70B5044600F2AA20054600F044F80120C4F89402B4F815
:202A6000B002C4F8980294F8AA2212F01F000AD001280ED0022812D02046BDE8704002F03B
:202A8000800100F012B829462046BDE8704000F04BB829462046BDE870400BF039BE294653
:202AA0002046BDE870400BF083BD10B5D0F8C802FEF750FBBDE81040FFF73BBF90F89C126E
:202AC00080F89D12042180F89C120020704710B5D0F8C80209F097FDBDE81040FFF729BFF6
:202AE00070B5044611F8010B207011F8010B60700D4608460AF00CFFA91C60800D460846F1
:202B00000AF006FFA080A81C0AF002FFE08070BD03460020D3F8B822002A02D01268184668
:202B2000104770470BF0C2BC2DE9F0410A78002612F060020CD0202A01D0402A7DD1D0F844
:202B4000D42200EB8202D2F8B8229268904731E04A78002301250A2A6FD2DFE802F04166AA
:202B60006E586E08056E2D29FFF770FE67E004468888D8B9C888C8B94888802816D200F099
:202B80007F0794F89C02032810D084F89E72394620460BF082FC2046FFF705FE1FB102203F
:202BA00084F89C024BE084F89C5248E0204644E00BF0A2FC064642E0CA88012A3DD190F89A
:202BC0009C22012A04D0022A02D0032A35D104E0012200F10801836016E00122011D13E0F9
:202BE00090F89C22012A03D0022A01D0032A24D1CA88022A21D1C560D0F8A41209B1032181
:202C0000C160022200F10C010BF0A3FA17E04A88012A02D0022A03D00FE0C0F8A45216E081
:202C20008988090A80F8A01211E090F89C22012A08D0022A06D0032A04D0FFF7A9FD3046F7
:202C4000BDE8F08149880129F9D1C0F8A432FFF7AAFDF4E70048704714270020D0F8001958
:202C60006FF30A01C0F80019D0F8041841F48071C0F804180020704708B500230D49009398
:202C8000009A521C00928A420CD80269002AF7DA0093026942F001020261009A521C009254
:202CA0008A4201D9032008BD0269D207F5D1002008BD0000400D030070B54C780A780123B8
:202CC00000EB4212012C2DD0D2F8004B002C0BDAD2F8004B44F00064C2F8004BD2F8004B9E
:202CE00044F08044C2F8004BD0F83C480D781E4605F00F05AB4024EA0343C0F83C38D0F866
:202D00001C48097801F00F0106FA01F324EA0341C0F81C18D2F8000B19490840C2F8000B57
:202D2000002070BDD2F80049002C0BDAD2F8004944F00064C2F80049D2F8004944F0804469
:202D4000C2F80049D0F83C480D7805F00F061D46B3409BB29C43C0F83C48D0F81C4809782A
:202D600001F00F0105FA01F399B28C43C0F81C48D2F8000903490840C2F80009D0E7000048
:202D80000078F3EF007833ECD0F8001E21F00301C0F8001ED0F8041841F00201C0F8041885
:202DA0000020704770B50D784E78444CEBB200EB4313012E21D0D3F8100B6FF31200C3F829
:202DC000100BD3F8100B2040C3F8100B886908B1C8688861C868C861D3F8100B40F4002066
:202DE000C3F8100BD3F8100BCC69C4F312042043C3F8100B012A55D058E08E69002ED3F864
:202E0000106932D06FF31206C3F81069D3F810692640C3F810698E69CC68A64200D98C61D2
:202E2000D3F8104944F40024C3F81049D3F810498E69C6F312063443C3F81049012A22D06A
:202E400000EB4512D2F8003943F00443C2F800398A6932B3D0F83428097801F00F0301211E
:202E600099400A43C0F8342826E02640C3F81069D3F8104944F40024C3F81049D3F81049C0
:202E80006FF31204D8E7496919B100EB4512C2F8141900EB4510D0F8001941F00441C0F807
:202EA000001909E0086908B1C3F8140BD3F8000B40F00440C3F8000B002070BDFFFF07E0CA
:202EC00010B5036C134CA34203D9D0F8003B002B1EDB0023C0F8103BD0F8103B43F40023E4
:202EE000C0F8103BD0F8103B43F01803C0F8103BD0F8103B43F0C043C0F8103B012907D11D
:202F0000C0F8142BD0F8001B41F08021C0F8001B002010BD0A30544F4A780B78012A00EB0D
:202F200043100BD0D0F8002B22F40012C0F8002B0979032914D0022912D017E0D0F80029DE
:202F400022F40012C0F800290979032901D002290CD1D0F8001941F08051C0F8001905E048
:202F6000D0F8001B41F08051C0F8001B00207047816841F0010181600020704708B500230E
:202F80000C490093009A521C00928A420AD80269002AF7DA102200930261009A521C0092D9
:202FA0008A4201D9032008BD0269D206F5D4002008BD0000400D0300406900F001007047F1
:202FC000D0F81818D0F81C080840000C704710B5D0F81038D0F8342801F00F0400EB4110C9
:202FE000E24002F00102D0F8080943EAC212104010BD00EB4111D1F8081BD0F8140808406E
:20300000704730B503460846940802F00301002203F5805303E01D6840F8045B521CA242AD
:20302000F9D300290BD01C680022D50024FA05F3491E521C090400F8013B090CF5D130BD51
:20304000D0F8002822F4FE62C0F80028D0F800284FF4FE6303EA01110A43C0F8002800204A
:203060007047FEE7002809DB00F01F02012191404009800000F1E020C0F80011704700006A
:2030800002480068C0F30220704700000CED00E00BF056BF08B509F015FA0AF081FC0AF0D3
:2030A000B1F8FEF73FFFFEF71FFF0AF0D1F80AF0E5F81B4C4AF6AA252560FEF78DFF0AF011
:2030C000DBF90AF043F8002000900AF0C1F82560FEF7D6FB134814490068B0FBF1F048F64F
:2030E000B80148430A21B0FBF1F007E0012211460020FFF7E5F825600098401E009000284E
:20310000F4D10A48007818B145F65A20FEF7F6FC00F00EF80AF04CF80BF020FFFEE7000088
:2031200000300040B4000020400D030019000020EFF3058010B16FF00500704704480168CA
:2031400011B14FF0FF3070470121016000207047080100202DE9F041134E0F460446F56861
:203160003068001D0CF0B3F9601C07D137B13168BDE8F0410D48091D00F032BA30682C44E8
:20318000AC424460316805D2B06BBDE8F041091D00F00EBA706B091D00F00AFAB06A844289
:2031A00000D2B462BDE8F081B80000205033002038B500F021FA104C2068C8B90F4800F0F2
:2031C000E9F90E48143000F0E5F90C48E060143020610A4B0020F03B009003F150021021A5
:2031E0000A200CF01DFB206010B105A10CF0DCF9BDE8384000F020BAF40000205434002036
:20320000546D72510000000030B4026C0B46002A0BD0C1681144C1608468A14201D30168D7
:20322000C16030BC1846FDF782B830BC704710B5044690F8590058B101280CD002280FD04B
:20324000502080F31188BFF34F8FBFF36F8FFEE7206B0CF065F92046BDE810400CF060B978
:2032600010BD000010484FF47051420706D0C01D0D4920F00700411AC1F570510B4A002372
:203280000144C2E900030839183A21F0070111604B600B600B1AC0E9001393604FF00040B5
:2032A0005360506170470000343B0020240100202DE9F05F0E46DDE90B941746834691004A
:2032C0009A460A9DA522206BFDF7A8F86FF00301206B01EB8701084420F00707780707D05F
:2032E000502080F31188BFF34F8FBFF36F8FFEE74FF0000866B100202218315C82F834102A
:20330000315C11B1401C1028F6D384F8438001E084F83480382D00D33725E562C4E91358BE
:20332000201D00F042F904F1180000F03EF92461C5F138006462A061C4F8548084F85880D3
:2033400052465946384600F0EDF82060B9F1000F01D0C9F80040BDE8F09F000070B500245B
:2033600041600B4D0061914206D8D11A8269914206D2011D286907E09A4203D2994201D3CB
:20338000012403E0011DE86800F012F9204670BDF40000200648416B096829B1416BC968F3
:2033A000C9684968816270474FF0FF31FAE70000B8000020F8B5194E20E0C068C468056894
:2033C000201D0CF084F8216A2046884794F82800400713D5A0692844A84206D92461606012
:2033E000211DF06800F0E4F808E000200346014600902A46204600F0F3FB38B1F0680168E5
:203400000029DAD13169C6E90310F8BD502080F31188BFF34F8FBFF36F8FFEE7F400002012
:20342000084CE068016839B1002139B100200BF083FF0BF003FFF4E70121F6E7C06800688E
:20344000F5E70000F40000202DE9F041054600260CF01CF9324F386808B9FFF703FF7869F8
:2034600005424ED1C5B3083568070ED005F00700C0F108000544680707D0502080F3118824
:20348000BFF34F8FBFF36F8FFEE72DB37868854237D8234918310846046801E02146044670
:2034A0006068A84202D220680028F7D13868844227D00E682068086060680836411B1029B0
:2034C0000FD96019420708D0502080F31188BFF34F8FBFF36F8FFEE713E0416065600BF075
:2034E00079FE61687868401A7860BA68904200D2B860786901430020C4E90001F868401CED
:20350000F8600CF00DFB700707D0502080F31188BFF34F8FBFF36F8FFEE73046BDE8F081D4
:203520000C01002010B5031F4FF080741C601B1F21F001011960191F044B0B6014390A6059
:20354000091F6FF0020244380A6010BD21F4000810B54A1E962A16D200230B4A02E0C45CC1
:20356000D4545B1C8B42FADB084C0A4607212046FEF730FB0648FEF7F9FB2046BDE8104026
:20358000072109F093BD10BD00030020006402400010014000F108014FF0FF32C0E90112AD
:2035A000C160016100210160704700210161704730B50C68621C02D000F1080202E0026924
:2035C00004E01A4653681D68A542FAD953684B6099608A60516008610168491C016030BD2E
:2035E00042684A6093688B6093685960916008610168491C01607047502080F31188BFF36F
:203600004F8FBFF36F8F0A494868401C486001280CD10848006810F0FF0F07D0502080F38F
:203620001188BFF34F8FBFF36F8FFEE7704700002C01002004ED00E00849486828B1401EBF
:20364000486001D180F311887047502080F31188BFF34F8FBFF36F8FFEE700002C0100203F
:2036600010B508F03DFD114910280ED300F1E02090F8F0030A78904207D2502080F31188CB
:20368000BFF34F8FBFF36F8FFEE709480068896800F4E060884207D9502080F31188BFF34F
:2036A0004F8FBFF36F8FFEE710BD00002C0100200CED00E070B515460E460446FFF79CFFF5
:2036C00094F944100020491C01D184F8440094F94510491C01D184F84500FFF7ADFFA06B6B
:2036E00028B92A46314604F124000BF0B3FF2046BDE870400BF0A8BE02490A6A0260C968CE
:2037000041607047B800002030B587B00025039505AA04A903A804950BF0ECFEDDE9030151
:203720000095CDE90110002314A11648059A0CF08BF9154CE06218B10CF052FA012809D022
:20374000401C19D1502080F31188BFF34F8FBFF36F8FFEE7502080F31188BFF34F8FBFF3C4
:203760006F8F4FF0FF30A06201206061E56007B0BDE830400BF0C4BF07B030BD49444C45A8
:203780000000000059F10008B80000202DE9FF4F83B01F468B4604004FF0000603D0BBF16A
:2037A000000F08D011E0502080F31188BFF34F8FBFF36F8FFEE7206C38B1502080F311889F
:2037C000BFF34F8FBFF36F8FFEE7022F0AD1E06B012807D0502080F31188BFF34F8FBFF3AF
:2037E0006F8FFEE700F04CF9DFF800914FF0000A4FF0805848B9059838B1502080F31188E6
:20380000BFF34F8FBFF36F8FFEE7FFF7F5FEA06BE16B884205D3022F03D00598C8B1DEB1F8
:203820001EE03A46594620460BF060FC616A19B104F1240000F09CF928B1C9F80080BFF3AF
:203840004F8FBFF36F8FFFF7F7FE012007B0BDE8F08FFFF7F1FE21E06846FFF74DFF0126F6
:20386000FFF7EAFE0BF012FFFFF7C6FE94F94400401C01D184F844A094F94500401C01D145
:2038800084F845A0FFF7D8FE05A9684600F090F830B120460BF0D8FD0CF042F90020D5E7FD
:2038A000FFF7AAFEA06BE16B884201D1012500E00025FFF7C1FE95B104F1100005990BF0B3
:2038C000B1FE20460BF0C0FD0CF02AF900289CD1C9F80080BFF34F8FBFF36F8F95E7204604
:2038E0000BF0B2FD0CF01CF98FE7000004ED00E02DE9F0471F4690468946040003D0B9F1EE
:20390000000F08D011E0502080F31188BFF34F8FBFF36F8FFEE7206C38B1502080F311883D
:20392000BFF34F8FBFF36F8FFEE7022F0AD1E06B012807D0502080F31188BFF34F8FBFF34D
:203940006F8FFEE7FFF78CFE5020EFF3118680F31188BFF34F8FBFF36F8FA06BE16B8842AE
:2039600006D3022F04D0002086F31188BDE8F08794F94550A06B3A46494620460BF0B6FBCD
:20398000681C04D06D1C84F845500120ECE7606A0028FAD004F1240000F0EAF80028F4D0AE
:2039A000B8F1000FF1D00121C8F80010EDE700002DE9F0410C46050011D0C4B1FFF71CFEC4
:2039C000174EF1686B682268C81A571C17D02F68366AB74219D08B4217D8012410E0502036
:2039E00080F31188BFF34F8FBFF36F8FFEE7502080F31188BFF34F8FBFF36F8FFEE70024D1
:203A0000FFF71AFE2046BDE8F081824205D9101A20602846FFF770FEF1E700202060DCE7C3
:203A2000B80000202DE9FF5F8346DDE90E87994616468A469000FFF707FD05001CD05C2014
:203A4000FFF702FD040014D00020256384F85900CDE90240CDE900874B4632465146584699
:203A6000FFF726FC20460BF0D9FA012004B0BDE8F09F28460BF054FD4FF0FF30F6E70000EC
:203A80000548416919B1006B18B10020704701207047022070470000B80000200148C06860
:203AA00070470000B80000202DE9F0412E4F0026386B28B1B869401CB8613046BDE8F081EF
:203AC000FD686D1CFD6013D1786B006838B1502080F31188BFF34F8FBFF36F8FFEE7786BFF
:203AE000B96B7963B863386A401C3862FFF752FCB86ADFF87880854209D3786B0068A0B19F
:203B0000786BC068C4686068854211D2B8623868C06A00EB800158F82100012800D9012612
:203B2000F8690028C9D00126C7E74FF0FF30EDE7201D0BF0CCFCA06A18B104F118000BF071
:203B4000C6FCE06A3969884200D9386100EB800108EB8100211DFFF743FDE06A3968C96A09
:203B60008842CAD30126C8E7B8000020A02E002070B5C068C46854B104F1180006460BF070
:203B8000A6FC144D286B50B13146134815E0502080F31188BFF34F8FBFF36F8FFEE7201DE9
:203BA0000BF095FCE06A2969884200D928610B4900EB800001EB8000211DFFF711FDE06ABA
:203BC0002968C96A884202D90120E86170BD002070BD0000B800002028330020A02E002057
:203BE0002DE9FF411F4603000A9E4FF0000015D0134D2C68002C0ED08DE80E00062917DA9A
:203C0000FFF73EFF02284FF000030FD0002269462868FFF7BBFD04B0BDE8F081502080F36A
:203C20001188BFF34F8FBFF36F8FFEE73246EEE700233A4669462046FFF75AFEEBE70000A1
:203C4000F4000020043D0008000000000000000000000000000000000004000018000000EB
:203C60000000000000000000FC3C00080000000000000000000000000000000000080000FC
:203C8000080000000000000000000000F43C000800000000000000000000000000000000E4
:203CA00000080000080000000000000000000000EC3C0008000000000000000000000000C4
:203CC0000000000000040000080000000000000000000000102840587088A0B810284058E8
:203CE0007088A0B800000000010203044C45445461736B0043414E5461736B00494150546F
:203D000061736B0064656661756C745461736B00303D000800000020C8010000C4010008C1
:203D2000FC3D0008C8010020D081000020020008011414C8C8C872A103220504138DE11487
:203D400008E1271B08ED041A990C1315281B086D081ABD1017040309041201140202021643
:203D60004083044057260201020301031A1A0313ADC21B08A90413ED041B08D1081AF10817
:203D80001933118210037924F41AAA018114810182130A0632022A40A01C090243DF112562
:203DA000C03209041B01020B13052416100105240110090104240202052406170107058233
:203DC0000308151009040133020A2E0705010240072A8107111309DF1408B9DD140837E03F
:203DE00042081349DE1B0841104B812610811AC9181A8D041ABD181A81080000FFFFFFFF14
:203E0000FFFFFFFFFFFFFFFFFFFFFFFFFFFFFFFFFFFFFFFFFFFFFFFFFFFFFFFFFFFFFFFFC2
:203E2000FFFFFFFFFFFFFFFFFFFFFFFFFFFFFFFFFFFFFFFFFFFFFFFFFFFFFFFFFFFFFFFFA2
:203E4000FFFFFFFFFFFFFFFFFFFFFFFFFFFFFFFFFFFFFFFFFFFFFFFFFFFFFFFFFFFFFFFF82
:203E6000FFFFFFFFFFFFFFFFFFFFFFFFFFFFFFFFFFFFFFFFFFFFFFFFFFFFFFFFFFFFFFFF62
:203E8000FFFFFFFFFFFFFFFFFFFFFFFFFFFFFFFFFFFFFFFFFFFFFFFFFFFFFFFFFFFFFFFF42
:203EA000FFFFFFFFFFFFFFFFFFFFFFFFFFFFFFFFFFFFFFFFFFFFFFFFFFFFFFFFFFFFFFFF22
:203EC000FFFFFFFFFFFFFFFFFFFFFFFFFFFFFFFFFFFFFFFFFFFFFFFFFFFFFFFFFFFFFFFF02
:203EE000FFFFFFFFFFFFFFFFFFFFFFFFFFFFFFFFFFFFFFFFFFFFFFFFFFFFFFFFFFFFFFFFE2
:203F0000FFFFFFFFFFFFFFFFFFFFFFFFFFFFFFFFFFFFFFFFFFFFFFFFFFFFFFFFFFFFFFFFC1
:203F2000FFFFFFFFFFFFFFFFFFFFFFFFFFFFFFFFFFFFFFFFFFFFFFFFFFFFFFFFFFFFFFFFA1
:203F4000FFFFFFFFFFFFFFFFFFFFFFFFFFFFFFFFFFFFFFFFFFFFFFFFFFFFFFFFFFFFFFFF81
:203F6000FFFFFFFFFFFFFFFFFFFFFFFFFFFFFFFFFFFFFFFFFFFFFFFFFFFFFFFFFFFFFFFF61
:203F8000FFFFFFFFFFFFFFFFFFFFFFFFFFFFFFFFFFFFFFFFFFFFFFFFFFFFFFFFFFFFFFFF41
:203FA000FFFFFFFFFFFFFFFFFFFFFFFFFFFFFFFFFFFFFFFFFFFFFFFFFFFFFFFFFFFFFFFF21
:203FC000FFFFFFFFFFFFFFFFFFFFFFFFFFFFFFFFFFFFFFFFFFFFFFFFFFFFFFFFFFFFFFFF01
:203FE000FFFFFFFFFFFFFFFFFFFFFFFFFFFFFFFFFFFFFFFFFFFFFFFFFFFFFFFFFFFFFFFFE1
:020000040800F2
:204000000000FFFF0001E8030002E9030000EA034270EB030000EC03C270ED030000EE0339
:20402000420CEF030000F003C282F1030000F2034334F3036000F403C7EAF5036000F6035A
:2040400047EAF703CCCDF8033F4CF9030000FA034396FB038000FC0344BBFD030000FE03C7
:204060004140FF030000000442800104000002044120030400000404410005040001060427
:20408000000007040000080442AA090400000A0442C80B0400000C0442AA0D0400000E04CA
:2040A00042C80F04999A10043E1911040000120400001304333314043F7315048000160420
:2040C00044BB170480001804C4BB190400001A043F801B0400001C043F801D0400001E0470
:2040E0003F801F04000020044270210400002204C270230400002404420C2504000026049B
:20410000C2822704000028044270290400002A04C2702B0400002C0443162D0480002E042A
:2041200044892F0400003004412031040000320442783304CCCD34043F4C3504400036047F
:20414000479C3704000038044416390401FF3A0402033B0406053C04FF043D0400003E041B
:2041600044FA3F041B0840043D1E4104FA5E420442A443046000440446EA4504CCCD4604E8
:204180003DCC470468DC48044206490400014A0400004B0400004C0441A84D0433334E04C6
:2041A0003FD34F04000050043F805104333352043FD35304000054043F8055040000560443
:2041C0003F805704E66F580438215904EFFE5A043DA85B04482D5C043B8E5D04547F5E049B
:2041E0004C4A5F04CCCD60043D4C610480006204450963047C0064044892650400006604AF
:2042000041206704000068044348690400006A0443C86B04CCCD6C043DCC6D04CCCD6E04F8
:204220003DCC6F0400007004000071040000720400007304FF017404FFFF7504FFFF7604C5
:20424000FFFF770400FF78040000790420007A0445CB7B0400007C0400007D0400007E043D
:2042600000007F0400008004000081040000820441C88304CCCD84043DCC8504000286045D
:20428000000087040000880441A0890400008A0440808B0400008C0441208D0400008E04A8
:2042A00044FA8F040041900400009104126F92043A839304000194040000950400C89604C4
:2042C000000097040000980400009904CCCD9A043DCC9B04C28F9C043CF59D0400009E04C6
:2042E00042489F044952A0043A9DA104D70AA2043D23A3040000A4040000A504CCCDA604B4
:204300003E4CA7040000A8040000A9040000AA040000AB0474BCAC043C13AD040000AE0420
:204320000000AF040000B0040000B104CCCDB2043E4CB3040000B4044110B504D70AB60474
:204340003C23B7040000B8040000B904BB99BA043B96BB04D70ABC043D23BD0401F4BE04AF
:204360000000BF04D70AC0043CA3C1040000C2043F00C3040FA0C4040000C5040102C60458
:204380000000C7040010C8040000C9048000CA04453BCB04B800CC044708CD045000CE0442
:2043A00046C3CF044000D0044553D1040000D2040000D30428F6D4043F1CD504000ED604E1
:2043C0000000D7040000D8040000D9040000DA040000DB040000DC040000DD040003DE04E6
:2043E0000000DF040000E00440C0E1040000E20443FAE3040000E4040000E5040000E6044C
:204400000000E7040000E8044248E9040000EA044248EB040000EC04C248ED040000EE040A
:20442000C248EF040000F0044248F1040000F2044248F3040000F404C248F5040068D0075B
:204440000000D10703E8D2070000D3070000D4070000D5070001D6070000D7070032D80762
:204460000000D9070003DA070701DB070000DC070003DD070000DE070000DF076000E007B2
:20448000466AE107999AE2073E19E3070000E4073F80E5070000E6074000E7070000E80787
:2044A0003FC0E9070101EA070000EB070000EC070000ED070000EE070000EF070002F0075D
:2044C0000000F107CCCDF2073ECCF307CCCDF4073E4CF5070001F6070000F7078000F807B9
:2044E000453BF9070000FA07457AFB075C29FC073D8FFD070000FE074040FF07000000088F
:2045000000000108999A02083E190308666604083F660508000006084040070800000808BC
:204520004000090866660A083F660B0800000C0840400D0801010E0800000F0800001008A4
:2045400000001108000012080000130800001408000015080002160800001708999A180842
:204560003E991908CCCD1A083DCC1B0800011C0800001D0880001E08453B1F0801F42008A8
:204580000000210810002208000E23080001240800002508999A26083E192708CCCD280875
:2045A0003ECC2908CCCD2A083E4C2B0880002C08453B2D0800002E0800002F08000030082A
:2045C00000003108010232080000330880003408453B350800013608000037085C2938086E
:2045E0003D8F390800003A0840403B0803013C0800013D084C033E08C7C63F080100400869
:204600000000410800004208000043080000440800004508000046080000470803E848084B
:204620000000490800004A0841A04B0800004C0842344D0800004E0800004F08000050087F
:2046400000005108666652083F665308000054083F405508000056084170570800005808D5
:2046600040A0590800005A0842C85B0800005C0800005D0800005E0841A05F08000060084B
:20468000410061080000620841F06308000064080000650800006608000067080000680844
:2046A0000000690800006A0800006B0800006C0800006D0800006E0800006F080000700856
:2046C0000000710800007208000073080000740800007508000076080000770800007808F6
:2046E0000000790800007A0800007B0803E87C0800007D0800007E0800007F0800008008AB
:204700003F8081080000820842A08308000184080000850800C886080000870800008808CB
:204720003F808908999A8A083E998B0800008C0800008D08CCCD8E083DCC8F08000090086A
:2047400000009108E5009208427B93080000940800009508000096080000970800009808D3
:204760000000990800009A0800009B0800009C0800009D0800009E0800009F080000A00815
:204780000000A1080000A2080000A3080000A4080000A5080000A6080000A7080000A808B5
:2047A00040A0A9080EA0920842D893083B20920843069308910040043D3E4104F64642047B
:2047C00042A04304668148044207490423D7580438435904D3395A043DA45B04204E5C0441
:2047E0003B915D047A215E044C425F04AE689208434A930853F440043D1C410439DB420443
:2048000070F2480442064904146E58043820590412495A0416895C043B8F5D040E8B5E04E4
:204820004C485F04279A40043D17410489BA4204AD77480442054904C84B5804381A590438
:2048400064125A0435B85C043B8E5D0489075E044C4A5F048600920842449308F7809208D0
:204860004261930873EF40043D3C4104828F4204429F43046CA5480442064904F9C9580407
:204880003840590456975A043DA35B044D0F5C043B8F5D04766B5E044C475F0420B092082F
:2048A00043989308A33340043D1F4104D1EC4204429E4304EF3548044205490478035804C2
:2048C00038235904A1B65A043DA25B0490515C043B8E5D0487EF5E044C495F04E6749208FE
:2048E00043959308C20CF103430CF303C76AF503476AF7034130FF034270010441100504E6
:2049000042DC090442DC0B041B001804C9B71904C20C2704154D40043D0C410428F64204DA
:2049200042A24304B800440447084504C28F46043DF54704CCCD4804430A49043F00570483
:2049400071F85804380F590417C25A043DA65B043EF35C04722C5E044C4A5F04999A600454
:204960003E9961040000620444FA630400008604C28FA2043D75A304D70AA4043AA3A50407
:204980009BA6AC043BC4AD04C5ACB00437A7B104CCCDB8043D4CB9042000C4044040D904DE
:2049A000FBE7DA043DA9DB04215B40043D2C410423D7420442A44304E17C48044208490457
:2049C00042ED58043830590414515A043DA85B04B5465C043B885D042A475E044C5B5F0424
:2049E000EE989208437F9308A4BC9208438F930808314004E14848043EA258043DF5A304CC
:204A000090BC9208439493081074920843999308F3B640043D7D410408F6420443D243041D
:204A200034F09208428F9308CC00920842C9930836C09208419F93085A8892084395930846
:204A40000202E9030FF05804382A590478F75A043DA15B0489794804434D490400004A04C9
:204A60000002C6048A3D4804143B580476DE5A04C282F1034334F303C7EAF50347EAF70381
:204A80004140FF03428001044100050442AA090442C80B0480001804C4BB1904C2822704C9
:204AA000B1003E04491E3F04773240043ECD410449DB4204440343046000440446EA450403
:204AC000CCCD46043DCC4704C28F480442FA490400014A0441604D043F8057041953580456
:204AE000382D590427525A043E005B041D1C5C043BA15D04CBB45E044C1D5F04CCCD600400
:204B00003D4C6104800062044509630400028604D70AA2043D23A3040000A4040000A504A1
:204B200074BCAC043C13AD040000B0040000B10440C0B5040000B8040000B9040FA0C40483
:204B40000102C6040000D9040000DA040000DB04CAC140043D2141046E144204429F43048C
:204B600097545804382559043EFF5A043DA35B04E3A95C043B8C5D0459895E044C4E5F0405
:204B800028A240043F144104DD854204451043041E35480442F5490400004A04D42E58045C
:204BA000382159043B475A043E1E5B0404A25C043BA25D0409F65E044C1C5F040002C60468
:204BC0005000F403C743F5035000F6034743F70342C80D0420003E0445CB3F04C4334004B4
:204BE0003D314104FAE1420442EC4304C28F48044375490400014A0413225804383659041F
:204C0000AAE35A043DF25B048ADA5C0408AC5E044C1B5F040102C604A68B40043F1B410496
:204C2000AF5C420445124304D917480442F4490400004A04030D5804382A5904381A5A049D
:204C40003E205B04667C5C043BA45D048CAE5E044C175F040002C604A5E34004D70A4804EE
:204C6000FEC2580438295904370D5A04B1007A04491E7B0420007A0445CB7B04C28F4004E1
:204C80003F154104D000420493EE5804382359045BC05A0453575C043BA35D048CF85E0428
:204CA0004C195F048CFC5E04B1007A04491E7B0451EC40043EF84104EB8540043E91410469
:204CC000C28F40043F1541045000420445514304D00042044512430420007A0445CB7B0452
:204CE000C43340043D314104FAE1420442EC4304C28F48044375490400014A0413225804AE
:204D000038365904AAE35A043DF25B048ADA5C043BA25D0408AC5E044C1B5F04B1007A043E
:204D2000491E7B040102C6048C9440043F4C4104687B420444DF4304C419480442F549044C
:204D400000004A046C155804385F590405715A043DF45B045C065C043BA15D0450B95E0466
:204D60004C1D5F040002C60449BA40043ECC4104C28F48046E3A580404EA5A048B44400405
:204D80003F4C4104D0F6420444444304687B420444DF4304C08340043DCA4104C4334004C7
:204DA0003D314104FAE1420442EC43044375490400014A041322580438365904AAE35A040F
:204DC0003DF25B048ADA5C043BA25D0408AC5E044C1B5F040102C604B85240043F164104AE
:204DE0008F5C420444DF4304E3D7480442F4490400004A04A05E5804382459042FE85A04B9
:204E00003DF45B04620A5C043BA05D043C9F5E044C1F5F040002C604C43340043D31410435
:204E2000FAE1420442EC4304C28F48044375490400014A041322580438365904AAE35A04A4
:204E40003DF25B048ADA5C043BA25D0408AC5E044C1B5F040102C604B33D40043F38410425
:204E60001BD7420444DE4304CF5C480442F5490400004A04BDE85804384959049A1C5A0455
:204E800022245C043BA15D04C1D45E044C1D5F040002C604FBE740043D294104CCCD4804EA
:204EA000BEFB58049B285A044BC740043E774104AC3240043E6241048B85420444E24304A2
:204EC000B0B358043839590472925A043DF75B040DDC5C043BA25D04F8325E044C1B5F0473
:204EE00054B0920843029308888C920843909308FFFFFFFFFFFFFFFFFFFFFFFFFFFFFFFF28
:204F0000FFFFFFFFFFFFFFFFFFFFFFFFFFFFFFFFFFFFFFFFFFFFFFFFFFFFFFFFFFFFFFFFB1
:204F2000FFFFFFFFFFFFFFFFFFFFFFFFFFFFFFFFFFFFFFFFFFFFFFFFFFFFFFFFFFFFFFFF91
:204F4000FFFFFFFFFFFFFFFFFFFFFFFFFFFFFFFFFFFFFFFFFFFFFFFFFFFFFFFFFFFFFFFF71
:204F6000FFFFFFFFFFFFFFFFFFFFFFFFFFFFFFFFFFFFFFFFFFFFFFFFFFFFFFFFFFFFFFFF51
:020000040800F2
:020000040800F2
:20C000001FB503F01DFE1FBDF4F744FA1146FFF7F7FFF7F73FF800F0AAF803B4F4F70EF996
:20C0200003BCF4F72DFA00002C4B19680868B0E8F04F80F30988BFF36F8F4FF0000080F38A
:20C04000118870470000000008480068006880F308884FF0000080F3148862B661B6BFF33E
:20C060004F8FBFF36F8F00DF00BF00BF08ED00E0DFF80C00016841F470010160704700BF37
:20C0800088ED00E0EFF30980BFF36F8F134B1A681EF0100F08BF20ED108A20E9F04F1060FD
:20C0A00009B44FF0500080F31188BFF34F8FBFF36F8F03F0F3FA4FF0000080F3118809BCF8
:20C0C00019680868B0E8F04F1EF0100F08BFB0EC108A80F30988BFF36F8F7047B80000202B
:20C0E000EFF30580704700000948804709480047FEE7FEE7FEE7FEE7FEE7FEE7FEE7FEE74A
:20C10000FEE7FEE704480549054A064B70470000B924000889010008987700209883002083
:20C12000987B0020987B00204FF000020429C0F0128010F0030C34F47BA9CCF1040CBCF114
:20C14000020F18BF00F8012BA8BF20F8022BA1EB0C01F4F76DB95FEAC17C24BF00F8012BF0
:20C1600000F8012B48BF00F8012B7047704710B50446AFF300802046BDE81040FFF74DBF74
:20C18000464910B54A6822F440324A604A6843681A434A6001684A6822F480724A600168CD
:20C1A0004A68036942EA03224A6001684A6822F040724A6001684A6883681A434A60016867
:20C1C0008A6822F400628A6001688A68C3681A438A60816A6FF07062D14201688A6822F0A2
:20C1E00070628A6001688A680CD0836A1A438A6001688A6822F040528A6001688A68C36AA7
:20C200001A4301E022F040528A6001688A6822F002028A6001688A68037E42EA43028A60C0
:20C2200090F82010002901684A680FD042F400624A6001684A6822F460424A6001684A6849
:20C24000174C436A04EB43331A4301E022F400624A600168CA6A22F47002CA620168CA6A1B
:20C26000838B104C04EB03531A43CA6201688A6822F400728A6001688A6890F8303042EA4A
:20C2800043228A6001688A6822F480628A6001688A68406942EA8020886010BD0023014029
:20C2A00000E0FFFF0000F0FF0020704710B5002204490548F6F749FA04490348F6F738FA72
:20C2C000002010BD141F0020381200201417002010B501460348F6F72BFA0248F6F70CFAC3
:20C2E000002010BD3812002006484168C1F3405121B94168C1F3C041002902D0062100F061
:20C30000C1BE70470060024070470000094910B50C6824F440740C600C6844F440740C60FF
:20C320000C6844F001040C600260BFF36F8F436010BD0000103C0240074A136823F440733E
:20C340001360136843F480731360136843F001031360018070470000103C024070B51149E8
:20C3600004460020C861F4F7CDFD05460E4E09E0601C07D024B1F4F7C5FD401BA04201D9F9
:20C38000032070BD3068C003F2D43068C00701D001203060306810F0F200F2D0F4F764F9B7
:20C3A000012070BD402E00200C3C024070B504004FF0000603D0206C002510B107E001205C
:20C3C00070BD204600F01CF8656484F83C50206CC00610D4206C20F4885040F00200206491
:20C3E0002046FFF7CDFE6564206C20F0020040F00100206400E0012684F83C50304670BD48
:20C4000030B587B0044614216846F4F70FF820492068884239D11F480025016841F4807101
:20C420000160006800F4807005901A481438016841F004010160016801F0040105910168AE
:20C4400041F001010160016801F001010591016841F0020101600068032400F00200059042
:20C460003F208DE8310069460B48F4F763FCF3208DE8310069460948F4F75CFC009469462C
:20C480000748CDE90145F4F755FC07B030BD000000200140443802400008024000000240C6
:20C4A00000040240704770477047704770477047704700000248816802781144816070479B
:20C4C000A80000200B4810B5016841F400710160016841F480610160016841F4807101603C
:20C4E000032000F029F80F20F4F712FDF4F75CFD002010BD003C0240F0B40E4B1B68C3F3FA
:20C500000223C3F10704042C00D904241D1D072D01D2002300E0DB1E012606FA04F56D1E1E
:20C520000D409D409E40761E164045EA0601F0BC02F0F6BC0CED00E0064A00F007011068EA
:20C540004FF6FF03184040EA0120034908431060704700000CED00E00000FA050068416250
:20C5600000207047F0B50368586A39B19C6A4FF4827500EB144400204E1E0AE040EA0240C3
:20C5800098620FE005EB8007DF59401C04EB1744C0B2B042F6D344EA02404FF4807202EB9E
:20C5A000810158500020F0BDD0F8080501F012BF01EBC10200EB8202D0F80805D26C01F0CB
:20C5C00065BE01EBC10200EB8202D0F80805D2F88C2201F0B4BE0A0601F00F0101EBC101AB
:20C5E00000EB810101D53C3101E001F51F71006802F02EBB01F00F0101EBC10100EB8100C6
:20C60000D0F89C02704770B50D4601F00F0404EBC40100EB81014B65CA640023CB6501230B
:20C6200081F83D3001F83C4F0369012B00D14A612A07027C006803D002F018FA002070BD41
:20C64000F6F7B0FBFAE700002DE9F84F056804462846F6F7B1FC00287DD1206802F07AFBE0
:20C66000002878D0D5F80808C0F30D20C4F8FC04206802F06FFB800704D52068416901F06A
:20C6800002014161206802F065FBC10604F2C440009034D52068816921F0100181612F6AB2
:20C6A00007F00F0000EBC00004EB8006C7F3434006F51F76022802D0062811D01AE047F645
:20C6C000F070074216D0C7F30A12174628463169F6F797FC306938443061306A384408E06C
:20C6E000082228460099F6F78CFC306AC7F30A11084430622068816941F010018161206829
:20C7000002F028FB00034FF0010B7AD500262068F6F756FC8046DFF87CA46FE05FEAC870ED
:20C7200069D0F1B22068F6F764FC0746C00707D005EB4611C1F808BB31462046F5F74CFD88
:20C74000380722D505EB46110820C1F8080B2068D0F8409000E01BE200EB4610D0F8082B2F
:20C76000D14505D9110403D54FF40041C0F8081B204600F09EFAD14507D92069012804D10E
:20C7800020680121009AF6F79BFBF80604D505EB46111020C1F8080BB8071DD56869000630
:20C7A00005D5D5F8040840F48061C5F8041806EBC60004EB800090F87F1200F51F700129EB
:20C7C00005D10021C170F1B22046F4F7FDFC05EB46110220C1F8080BB80604D505EB461032
:20C7E0002021C0F8081BB80405D505EB46104FF40051C0F8081B4FEA5808761CB8F1000FEF
:20C800008CD1206802F0A6FA40036ED5206802F09AFA8046002665E05FEAC8705FD0F1B289
:20C820002068F6F7D4FB0746C00723D006F00F020BFA02F0D5F834288243C5F8342805EBB8
:20C840004610C0F808B9206901280FD106EBC60004EB8000D0E912211144C16436B9606D2F
:20C8600020B920680121009AF6F72AFBF1B22046FFF79EFE380704D505EB46110820C1F8AE
:20C880000809F80604D505EB46111020C1F80809780604D505EB46104021C0F80819B807D9
:20C8A00017D53146284602F021FA06EBC60004EB800090F83F103C30012905D10021C170DF
:20C8C000F1B2204600F068F905EB46110220C1F80809380603D53146204600F022FF4FEA8E
:20C8E0005808761CB8F1000F96D1206802F032FA002811DAD5F8040820F00101C5F80418AA
:20C9000094F8F40401282BD0204600F0BAF92068416901F000414161206802F01BFA0005CC
:20C920000BD5D5F80808C00702D02046F4F7CEFC2068416901F400614161206802F00AFADE
:20C94000C00467D5D5F8040820F00101C5F804181021206802F0CAF900214FF67F3220E08E
:20C96000002084F8F40401462046F4F746FBCEE705EB4110C0F80829D0F8003923F4001340
:20C98000C0F80039C0F8082BD0F8003B23F40013C0F8003BD0F8003B43F00063C0F8003B0F
:20C9A000491C60688842E3D8D5F81C0840F00111C5F81C18206B002828460DD0D0F884084F
:20C9C00040F00B01C5F88418D5F8440840F00B012846C5F844180DE0D0F8140842F22B01B5
:20C9E0000843C5F81408D5F8100840F00B012846C5F81018D0F8000820F4FE61C5F8001887
:20CA0000217C2068009AF6F75BFA2068416901F480514161206802F09DF9800415D5206875
:20CA2000F6F71CF9206802F081F9E06000F000FA0146227B206802F0BFF92046F4F70AFC69
:20CA40002068416901F400514161206802F082F9000707D52046F4F713FC2068416901F061
:20CA600008014161206802F075F9000615D5A86920F08001A96101260CE006EBC60004EBCE
:20CA8000800090F87F02012803D1F1B22046FFF7A2FD761C6068B042EFD8206802F05AF992
:20CAA000C00221D501265F4616E005EB4610D0F8001906EBC60004EB800090F84020012A9C
:20CAC00009D1002907DA80F83F70F0B240F080012046FFF780FD761C6068B042E5D820688E
:20CAE000416901F480114161206802F033F9800231D501205B4626E005EB4011D1F8001B49
:20CB000000EBC00204EB820292F88062012E19D1002917DA94F8FC6401F4803106F00106C7
:20CB2000B1420FD182F87F32A96941F08002AA616969090606D4D5F8040840F40070C5F832
:20CB4000040803E0401C61688142D5D82068416901F400114161206802F0FCF8400007D5ED
:20CB60002046FFF721FD2068416901F080414161206802F0EFF840070AD52068456868078A
:20CB800002D52046F4F73AFA2068416829434160BDE8F88F0A30544FD0F8080501F050BC20
:20CBA0002DE9F0418AB0040005D094F8BD042668002520B108E001200AB0BDE8F08184F8F5
:20CBC000BC542046F4F704FB032084F8BD04F06BC00500D42561206801F016FF04F1100187
:20CBE000282288466846F3F7E7FB94E80F0001F009FE0227C8BB0021206802F0AFF8002111
:20CC000001260EE001EBC10004EB800080F83D6000F83C1F01810571C5600561491CC9B218
:20CC2000856160688842EDD8002111E001EBC10004EB800080F87D5280F87C1280F88052F2
:20CC4000C0F88852C0F88C52491CC9B2C0F8945260688842EAD8282241466846F3F7ACFBCA
:20CC600094E80F0001F016FE10B184F8BD74A2E784F8385084F8BD642068F6F785F800207A
:20CC80009AE7D0F8080501F0FBBB10B5044690F8BC0401280BD0012084F8BC0484F838101B
:20CCA0002068F6F7CDF9002084F8BC0410BD022010BDD0F8082500F2C4411046F5F7C5BE70
:20CCC00070B50C490120C1F8A400F4F71BF904464FF47A76084D06E0F4F714F9001BB042A0
:20CCE00001D9032070BD6868C0430007F4D4002070BD000000000E42007000402DE9F047CE
:20CD00000D46040065D0DFF81491D9F80000EFB200F00700A84207D289F80070D9F800001D
:20CD200000F00700A84254D120683D4E810712D5400703D5306840F4E05030602078000721
:20CD400003D5306840F4604030603068A16820F0F000084330602078C0072DD030496068E6
:20CD60000839012812D0022813D0032811D00968890700292DDA316821F00301014331609A
:20CD8000F4F7C0F8804641F2883A0EE009688903EFE709688901ECE7F4F7B4F8A0EB08017B
:20CDA000514502D90320BDE8F0873068616800F00C00B0EB810FEFD1D9F80010484601F01B
:20CDC0000701A94207D90770006800F00700A84201D00120E7E72078400705D53068E16866
:20CDE00020F4E050084330602078000706D53068216920F4604040EAC1003060F4F79EFAC6
:20CE00003168084AC1F30311515CC8400649086006480068F4F77CF80020C4E7003C024095
:20CE20000838024052FC0008B4000020AC0000200148006870470000B400002004480549A4
:20CE400000680968044AC1F38221515CC8407047B400002008380240E43C0008704710B5EE
:20CE6000040003D094F83D0010B107E0012010BD002084F83C002046F4F73FFC022084F87A
:20CE80003D00211D206800F0DFFD012084F8460084F83E0084F83F0084F8400084F84100F2
:20CEA00084F8420084F8430084F8440084F8450084F83D00002010BD90F83D10012901D0FE
:20CEC00001207047022180F83D100168CA6842F00102CA6000681149884214D0B0F1804FB8
:20CEE00011D00F4988420ED00E4988420BD00E49884208D00D49884205D00D49884202D075
:20CF00000C49884204D1816801F00701062903D0016841F001010160002070470000014024
:20CF20000004004000080040000C004000040140004001400018004070477047FEE70000A8
:20CF400030B4144B7B24144D1C708C245C702E249C702C7BDC70641C2C7319710D21597194
:20CF6000010E9971010CD971010A19725872100A9872DA720C21002210461C5C401C224492
:20CF8000C0B2D2B28842F8D35A5430BC0148491CF6F7DEBAA5110020340000200B4910B5F6
:20CFA00008680B4A08681040B0F1005F02D04FF0FF3010BD72B64868064A906150610968A4
:20CFC00081F308888047002010BD0000000006080000FE2F1800002000207047F0B5002387
:20CFE0000A24302537261F4610E0B4EB107F02D905EB107C01E006EB107C01F813C001EB61
:20D00000430C00015B1C8CF80170DBB29342ECD3F0BD0000044908B50A6802430A600968EA
:20D020000140009108BD000030380240044908B50A6802430A6009680140009108BD00007C
:20D0400030380240044908B50A6802430A6009680140009108BD000040380240034A1430A8
:20D06000515C0A5822F004020A507047D43C0008034A515C425822F010024250704700005F
:20D08000D43C0008034A515C425822F001024250704700004AFC0008034A515C425842F072
:20D0A0001002425070470000D43C0008034A515C425842F00102425070470000DC3C0008CB
:20D0C000024A001D515C085880B270474AFC0008034B595C435823F060631343435070478F
:20D0E000D43C0008044B001D595C0B586FF30F0313430B50704700004AFC0008034B595C67
:20D10000435823F48063134343507047D43C0008034B595C435823F490731343435070476A
:20D12000D43C0008034B595C435823F4C053134343507047D43C0008143050E8001F41F08B
:20D14000400140E80012002AF7D170477FB5002415480094019402941249039401604FF4A1
:20D160008031C0E901140461047680F820400F49C0E90A140125C561C46080F8304045616C
:20D18000FFF714F908B1F3F7E4F9CDE90045694605480294F3F79CFA002801D0F3F7D9F94A
:20D1A0007FBD000000200140C80100200100000F10B50E4A00210E4801F0ECFE0D4C0B4ABC
:20D1C000002160606C320C4801F0E4FE074A206124320021094801F0DDFE044AA06048327B
:20D1E0000021074801F0D6FEE06010BD443C000885240008000000208DD900081DD9000828
:20D200007D24000800B587B018216846F3F70EF98020FFF7FFFE0420FFF7FCFE0120FFF7E3
:20D22000F9FE0220FFF7F6FE08484FF440018161C021009101210191002102910391049132
:20D240006946F4F7FBFC07B000BD00000008024009484CF6CC41016045F255510160062119
:20D26000416040F6FF718160C1688907FCD14AF6AA2101607047000000300040F0B58FB089
:20D280001C2101A8F3F7D2F8182108A8F3F7CEF87248016841F010010160006800F010002D
:20D2A00000900220F4F73AFCC02008900220099003200024CDE90A040720CDE90C4008A983
:20D2C0006748F4F7BBFC674D4FF00066324602212846FFF7FDFE002202212846F4F786FC8A
:20D2E000002202212846F4F79FFCAA1502212846FFF70EFF002202212846F4F78BFC2F1539
:20D300003A4602212846FFF7F9FE002202212846FFF708FF002202212846F4F771FC022131
:20D320002846FFF79BFE324607212846FFF7D0FE402207212846F4F759FC0022072128462E
:20D34000F4F772FC002207212846FFF7E1FE002207212846F4F75EFC3A4607212846FFF7DE
:20D36000CDFE002207212846FFF7DCFE002207212846F4F745FC07212846FFF76FFE3A48FB
:20D3800000680622C0F30220114600F0B1F90146252001F0B5FD2520F5F764FE4FF46120B1
:20D3A000CDE901040C20CDE904400394069407942E4C01A92046F4F7EDFC206920F49040F5
:20D3C0002061606920F02A006061E06840F40050E06002212846F4F7E9FB261D0090244B5A
:20D3E000324602212846F4F7A5FB2248022102782846F4F7E3FB07212846F4F7D7FB1C4AA2
:20D4000000903346C83207212846F4F793FBC82207212846F4F7D2FB02212846FFF73CFE01
:20D4200002212846F4F7AEFB07212846FFF734FE07212846F4F79CFB07212846F4F78EFBE7
:20D44000C82202212846F4F7B9FB2046F4F798FC2046FFF771FE0FB0F0BD000044380240D8
:20D4600000040240006402400CED00E00010014038020020140000202DE9F0418EB01C2146
:20D4800001A8F2F7D3FF182108A8F2F7CFFF4FF40030FFF7D7FD0120F4F740FB0C250220B1
:20D4A000CDE9085003200024CDE90A040720CDE90C4008A96648F4F7C1FBDFF898814FF0F5
:20D4C0000066324605214046FFF702FE002205214046F4F78BFB002205214046F4F7A4FB35
:20D4E000F21405214046FFF713FE002205214046F4F790FB77143A4605214046FFF7FEFD87
:20D50000002205214046FFF70DFE002205214046F4F776FB05214046FFF7A0FD3246062134
:20D520004046FFF7D5FD402206214046F4F75EFB002206214046F4F777FB0022062140464F
:20D54000FFF7E6FD002206214046F4F763FB3A4606214046FFF7D2FD002206214046FFF723
:20D56000E1FD002206214046F4F74AFB06214046FFF774FD384800680622C0F3022011467E
:20D5800000F0B6F80146262001F0BAFC2620F5F769FD4FF46120CDE901040394CDE904450C
:20D5A000069407942D4C01A92046F4F7F3FB206920F490402061606920F02A006061E068DA
:20D5C00040F40050E06005214046F4F7EFFA251D0090234B2A4605214046F4F7ABFA2148B2
:20D5E000052142784046F4F7E9FA06214046F4F7DDFA1B4A00902B46C83206214046F4F790
:20D6000099FAC82206214046F4F7D8FA05214046FFF742FD05214046F4F7B4FA0621404650
:20D62000FFF726FD06214046F4F7A2FA06214046F4F794FAC82205214046F4F7BFFA2046D7
:20D64000F4F79EFB2046FFF777FD0EB0BDE8F08100000240006002400CED00E00044004061
:20D66000C80300201400002010B500220F49104800F0F0FD08B1F2F76CFF0E490C4800F06F
:20D680001EFF08B1F2F765FF0B49094800F0C8FC08B1F2F75EFF0648F5F744FA002803D09C
:20D6A000BDE81040F2F755BF10BD000044000020381200209001002094000020FEE730B5AE
:20D6C00000F00703C3F10704042C00D90424181D072801D2002300E0DB1E012505FA04F014
:20D6E000401E084098409D406D1E1540284330BD30B500F00703C3F10704042C00D90424C8
:20D70000181D072801D2002300E0DB1E012505FA04F0401E084098409D406D1E1540284317
:20D7200030BD2DE9F84F0E4601EBC60100EB81048146D0F80080616DE06D3C34884202D9E9
:20D740000120BDE8F88F081AE168814200D20846C01C870808EB461A15E0451AE068A842EA
:20D7600000D20546E81C870899F810000090ABB2F2B24046216901F093FB206928442061C2
:20D78000206A28442062DAF8180980B2B84205D3216AA069814201D20028DED1216AA06985
:20D7A000884208D806F00F0101208840D8F834188143C8F834180020C3E70000044909685C
:20D7C000044A01F0F0010909515CC840704700000838024052FC000804490968044A01F4C2
:20D7E000604102EB51310978C840704708380240E43C00080748006810F00C01064807D046
:20D80000042904D0082903D1082000F009B8034870470000083802400024F400001BB700BB
:20D8200010B5104B04460020196811F480020E4903D0B2F5800F00D10C49082C11D118683A
:20D8400000F03F00B1FBF0F01968C1F3881148431968012201F4403102EB11414900B0FB77
:20D86000F1F010BD043802400024F400001BB7001C49884201D2002070471B49884201D2B8
:20D88000012070471949884201D2022070471849884201D2032070471649884201D20420E0
:20D8A00070471549884201D2052070471349884201D2062070471249884201D2072070472E
:20D8C0001049884201D2082070470F49884201D2092070470D49884201D20A2070470B209F
:20D8E00070470000004000080080000800C0000800000108000002080000040800000608AC
:20D900000000080800000A0800000C0800000E080178407841EA0020704700001A4C4CF6E0
:20D92000CC4545F65A26F4F7E3F8A0F54C41CC392060A84224D006DC80B100F2A650B0F530
:20D94000C04F19D10FE001F6EF61B1F5005113D001F6EF61B1F5005F0ED107E0FFF71EFB9D
:20D9600050B1304606E0F3F7A5FF05E0FFF734FB0028F6D1F4F7C2F8022001F0E1FAD2E777
:20D98000F3F77BFFEDE7000000000020012100220846F4F795FC0A2001F0D2FAF6E700005D
